:020000020000FC
:040000000C9422003A
:04000C000C941E0131
:040034000C942901FE
:100040000C9438010FEF0DBF18E01EBF00E800E868
:100050000093610001E0009361000FEF05B900E03B
:1000600004B90FE307B90FEF0AB90FE100936B0072
:1000700001E000936800789415E021E030E040E072
:1000800059E065E073E082E0A0E0B0E0C0E0D1E0DC
:10009000E8E00E9401010E94F700403051F0413039
:1000A00051F0423051F0433051F0443051F00C9453
:1000B0004D000C9463000C94AB000C94EF000C9476
:1000C000F2000C94F500CC3369F15A3079F16630C6
:1000D00089F17A3099F182300E94A20008E008B9D3
:1000E000F2E0E6E8E50F94919BB90E94110104E06B
:1000F00008B9F2E0E6E8E60F94919BB90E9411017D
:1001000002E008B9F2E0E6E8E70F94919BB90E949B
:10011000110101E008B9F2E0E6E8E80F94919BB91B
:100120000C944D00C0E053950C94630050E063952F
:100130000C94630060E073950C94630070E0839509
:100140000C946300743009F0089550E060E070E0B2
:1001500080E0239508954498459A2A3049F1A330C8
:1001600059F1DA3081F1B13091F102E008B9F2E0F1
:10017000E6E8E20F94919BB90E94110101E008B9F1
:10018000F2E0E6E8EA0F94919BB90E94110108E0C1
:1001900008B9F2E0E6E8ED0F94919BB90E941101D5
:1001A00004E008B9F2E0E6E8EB0F94919BB975CF53
:1001B00020E0A3950C94AB00223011F00C94AB001E
:1001C00021E0A0E0D395D0E0B3950C94AB00D33000
:1001D00011F00C94AB00D1E0B0E00C94AB00449A69
:1001E00045985BCF449A459A58CF40E056CF00E0FF
:1001F00004BD05E005BD04E606BD01E000936E0008
:10020000089500E00093800005E00093810001EE76
:10021000009385000BE70093840001E000936F00DA
:1002200008953FEF3A95F1F73FEF3A95F1F73FEF39
:100230003A95F1F73FEF3A95F1F708950F930FB71D
:100240000F9333B134FF4395D89A0F910FBF0F919D
:1002500018950F930FB70F9311EE109385001BE7BE
:1002600010938400B09AC3950F910FBF0F9118950A
:100270000F930FB70F9314E616BDA89A23940F910E
:100280000FBF0F9118957E0CB69ECCDAFA0EFEDEEB
:00000001FF
